:0607CA00CEF85EFE1AAE3F
:1007D0006EF86EF4008825FA44D0017006C37FE0FD
:1007E0002EF42EF8EAA11EFE8EF2007805C8500401
:1007F00000056406000707CE017802C900F0E4088E
:1008000014E490060107A5F045F201F0820D67F0AF
:1008100002C200002ECE45F02B912A9046F006F041
:1008200046F00A0229F005F2A5F001F0820D67F00A
:1008300002C201001ECE45F046F046F02B912A90F0
:100840000A0229F005F2A5F001F0820D67F002C25C
:1008500002000FCE45F046F046F02B912A9046F06C
:100860000A0229F005F2A5F001F0820D67F03DC201
:100870000300008200001190EAEE00E01390ECEE1D
:100880001390EEEE1390F0EE1390F2EE1390F4EE60
:100890001390F6EE1190F8EE1190F9EE82A0A4F20A
:1008A000D2A059F2D2A05AF2D0A05BF2D2A05CF250
:1008B000D0A05DF2E2A059F2E2A05AF2E0A05BF211
:1008C000E2A05CF2E0A05DF280801A9020812A9183
:1008D000038144D04A90138001301190A4F200E0CB
:1008E00000F0E0077EE000F0E0077DE000F0E007C8
:081288005EFE1AAE5EF800885C
:1012900000001190EAEE1392ECEE42B01390EEEEE5
:1012A00044B01390F0EE46B01390F2EE00E01390CD
:1012B000F4EE48B01390F6EE00001190F8EE1190A5
:1012C000F9EE1290EEEE08C81290F2EE05C801E0B9
:1012D0001EF8EAA11EFE1FFE1090A5F2012001706B
:1012E00002C87FE0F5CE01001190F9EE80801A90DF
:0E12F0001190A1F201001190A3F200E0E9CEEE
:040DAC00CEF85EFC23
:100DB0005EF41090A5F200811090F9EE0EC901705A
:100DC0001CC9027002C800F0CE0E037002C800F009
:100DD0006E0F047002C800F0C20F1290F6EE09C93F
:100DE00005F400E01390F6EE1092F8EE1290F4EE97
:100DF00043F001E01EF41EFC8EF21080042004700B
:100E000017C800001190F9EE02001190F8EE0000F2
:100E10001190A3F21290F6EE09C905F400E01390C8
:100E2000F6EE1092F8EE1290F4EE43F001E0E2CE0E
:100E30001080022002700AC800001190F9EE010033
:100E40001190F8EE02001190A3F23ECE1290EEEE59
:100E500015C902001190F9EE129CECEEC0901190B1
:100E6000A2F2C5F081E01390ECEE1290EEEEFFE0FE
:100E70001390EEEE01001190A3F226CE1090EAEE50
:100E80000FC904001190F9EE01041290F2EEFFE098
:100E90001292F4EE27F001C881041194A3F214CE4B
:100EA00003001190F9EE129CF0EEC0901190A2F2A6
:100EB000C5F081E01390F0EE1290F4EE81E0139013
:100EC000F4EE01001190A3F200E000F0F40D1080A8
:100ED000022002700BC800001190F9EE0100119081
:100EE000F8EE02001190A3F200F0680F1290EEEEFF
:100EF00012C9129CECEEC0901190A2F2C5F081E0F4
:100F00001390ECEE1290EEEEFFE01390EEEE010087
:100F10001190A3F229CE1290F2EE07C800001190B2
:100F2000F9EE02001190A3F21FCE1090EAEE08C96C
:100F300001001190F9EE80A0A1F2A0A0A3F214CEBE
:100F400003001190F9EE129CF0EEC0901190A2F205
:100F5000C5F081E01390F0EE1290F4EE81E0139072
:100F6000F4EE01001190A3F200E000F0F40D108007
:100F70000220027008C800001190F9EE01001190E3
:100F8000F8EE020019CE1290F2EE1292F4EE27F073
:100F90000FC9129CF0EEC0901190A2F2C5F081E052
:100FA0001390F0EE25F081E01390F4EE010004CEF2
:100FB00000001190F9EE02001190A3F200E000F0A1
:060FC000F40D129CF0EE9E
:0A0FC6001090A0F2C1901290F0EE1E
:100FD00081E01390F0EE1290F4EE81E01390F4EEC5
:100FE0001290F2EE1292F4EE27F008C90104FFE02D
:100FF00027F001C881041194A3F206CE00001190DD
:0E100000F9EE02001190A3F200E000F0F40DF2
:0409AC0082A0A3F290
:1009B00000001190EAEE00E01390ECEE1390EEEEE2
:1009C0001390F0EE1390F2EE1390F4EE1390F6EE17
:0A09D0001190F8EE1190F9EE1FFEF1
:08007800000000000000000080
:08008000000000000000000078
:060A2A005EF400001190D3
:100A300011F0119012F0119013F0119014F0119028
:100A400015F0119016F0119017F0119018F0119008
:100A500019F011901AF011901BF011901CF01190E8
:100A60001DF011901EF011901FF000E445F046F0CB
:100A70008202050309A23EEE81E41F740055F6C50B
:040A80001EF41FFE43
:0405620008ED1FFE83
:02055E00F7EBB9
:020560001FFE7C
:0A04D6006EF8008825FA1F7003C1BC
:1004E0007FE02EF81FFE25F206C98080000106F08D
:1004F00009AA3EEE07CE8080000106F082020503C5
:0805000009A23EEE00E0EDCE81
:020006000FFEEB
:020582001FFE5A
:0609FA00000106F008A058
:040A00003EEE02F0D4
:0C112400CEFF6EF0109000F04EF00000C6
:0E11300001F0FA090EF0119000F02EF08EFF83
:02107E00CEF9A9
:101080006EF0109000F04EF0010001F0FA090EF041
:0A109000119000F02EF08EF90FFE13
:0C031400CEF96EF0109000F04EF00200E8
:1003200001F0FA090EF0119000F02EF08EF90FFE98
:10033000CEF96EF0109000F04EF0030001F0FA09D3
:0C0340000EF0119000F02EF08EF90FFE70
:0A104600CEF96EF0109000F04EF0AD
:10105000040001F0FA090EF0119000F02EF08EF964
:021060000FFE81
:0C01E400CEF96EF0109000F04EF0050017
:1001F00001F0FA090EF0119000F02EF08EF90FFECA
:10020000CEF96EF0109000F04EF0060001F0FA0901
:0C0210000EF0119000F02EF08EF90FFEA1
:02100E00CEF919
:101010006EF0109000F04EF0070001F0FA090EF0AB
:0A102000119000F02EF08EF90FFE83
:06102A00CEF96EF01090FB
:1010300000F04EF0080001F0FA090EF0119000F0F7
:061040002EF08EF90FFEF8
:0E119200CEF96EF0109000F04EF0090001F062
:0E11A000FA090EF0119000F02EF08EF90FFEFD
:0410EC00CEF96EF0DB
:1010F000109000F04EF00A0001F0FA090EF0119085
:0811000000F02EF08EF90FFE45
:0A117600CEF96EF0109000F04EF07C
:101180000B0001F0FA090EF0119000F02EF08EF92C
:021190000FFE50
:0411DC00CEF96EF0EA
:1011E000109000F04EF00C0001F0FA090EF0119092
:0811F00000F02EF08EF90FFE55
:02039E00CEF996
:1003A0006EF0109000F04EF00D0001F0FA090EF022
:0A03B000119000F02EF08EF90FFE00
:0603BA00CEF96EF0109078
:1003C00000F04EF00E0001F0FA090EF0119000F06E
:0603D0002EF08EF90FFE75
:06048A00CEF96EF01090A7
:1004900000F04EF00F0001F0FA090EF0119000F09C
:0604A0002EF08EF90FFEA4
:0A04A600CEF96EF0109000F04EF059
:1004B000100001F0FA090EF0119000F02EF08EF904
:0204C0000FFE2D
:10037000CEF96EF0109000F04EF0110001F0FA0985
:0C0380000EF0119000F02EF08EF90FFE30
:04034C00CEF96EF088
:10035000109000F04EF0120001F0FA090EF011902A
:0803600000F02EF08EF90FFEF3
:0A03D600CEF96EF0109000F04EF02A
:1003E000130001F0FA090EF0119000F02EF08EF9D2
:0203F0000FFEFE
:02113E00CEF9E8
:101140006EF0109000F04EF0140001F0FA090EF06D
:0A115000119000F02EF08EF90FFE52
:06040A00CEF96EF0109027
:1004100000F04EF0150001F0FA090EF0119000F016
:060420002EF08EF90FFE24
:06115A00CEF96EF01090CA
:1011600000F04EF0160001F0FA090EF0119000F0B8
:061170002EF08EF90FFEC7
:10099000CEF96EF0109000F04EF0170001F0FA0959
:0C09A0000EF0119000F02EF08EF90FFE0A
:1008F000CEF96EF0109000F04EF0180001F0FA09F9
:0C0900000EF0119000F02EF08EF90FFEAA
:04090C00CEF96EF0C2
:10091000109000F04EF0190001F0FA090EF011905D
:0809200000F02EF08EF90FFE2D
:08092800CEF96EF0109000F012
:100930004EF01A0001F0FA090EF0119000F02EF0BE
:040940008EF90FFE1F
:08110800CEF96EF0109000F02A
:101110004EF01B0001F0FA090EF0119000F02EF0D5
:041120008EF90FFE37
:0E106200CEF96EF0109000F04EF01C0001F080
:0E107000FA090EF0119000F02EF08EF90FFE2E
:0801C800CEF96EF0109000F07A
:1001D0004EF01D0001F0FA090EF0119000F02EF023
:0401E0008EF90FFE87
:0A056600CEF96EF0109000F04EF098
:100570001E0001F0FA090EF0119000F02EF08EF935
:020580000FFE6C
:020008002411C1
:04000C007E1006005C
:100010001403300346100600E40100020E102A10FB
:1000200092110600EC100600060006007611DC11A5
:10003000060006009E03BA0306000600060006003E
:100040008A04A604060006000600060070034C039E
:100050000600060006000600D6033E110A045A11E7
:100060009009F0080C092809060008110600621022
:08007000C80106000600660548
:0C0A040001F0A40B01F0C20481A060F21C
:100A100003C982A060F202CE80A060F201F0F2036E
:0A0A200001F0F20301F0F203EFCE43
:0E04C2005A0011900EF081A00EF0FAC9A500AC
:0604D00011900EF01FFE6A
:0E03F2005EF400E401CE81E400E26074EA559E
:0A04000000520053F9C51EF41FFE60
:0C0BA400CEF880A02AF0A2A02AF0B0A099
:100BB0002AF0E0A02AF0F2A02AF0000011902CF018
:100BC00011902EF011902FF001F0440901F006076A
:100BD00001F0A00A01F0260401F09A100000119023
:100BE000E0F81190E1F892A0E1F880A0E1F8D2A03D
:100BF000E2F8F2A0E2F882A0E3F801F05E0501F06D
:100C00002A0A0000119017F0119016F0119015F0BB
:100C1000119014F0119013F0119012F0119011F046
:100C2000119010F011901FF011901EF011901DF016
:100C300011901CF011901BF011901AF0119019F006
:100C4000119018F0B2A017F08C0203030F0001F00E
:100C5000D604A0020D030C0001F0D604F0A012F09F
:100C6000F0A01AF080A014F001F0620503001190CA
:100C70000FF001F0C2040D00119006EF0A00119070
:100C800007EF0D0011901DEF0A0011901EEF0D00EF
:100C900011902BEF0A0011902CEF0D00119042EFF4
:100CA0000A00119043EF0D00119058EF0A001190C7
:100CB00059EF0D001190ACEF0A001190ADEF0D004F
:100CC00011906EEF0A0011906FEF0D001190C1EFBF
:100CD0000A001190C2EF0D001190D6EF0A0011909A
:100CE000D7EF0D001190EDEF0A001190EEEF00002C
:100CF0004EF040021F03010001F0CA0702E1940018
:100D000001015EF040021F03020001F0960502E1BE
:100D100001F09E0100001190FFEF01F0840A8E00A7
:100D20000D015EF00EE2FA00EE0101F0080502E1AD
:100D300004CE01F0F20301F0C2041090FFEF017045
:100D4000F8C800001190FEEF01F0AC098400050125
:100D50005EF001E05EF0F100EF015EF001E05EF0B8
:0C0D6000F002EF031090EFEF01F088129A
:040D6C0008E102CECA
:100D700001F0C2041090FEEF0170FAC801F0BA1041
:020D80008EF2F1
:020D8E00CEF89D
:100D900001F01C0201001190FFEF01F068038EF2D8
:0C058400CEF801F0AC0D01001190FEEF6C
:0605900001F068038EF289
:0C0DA000CEF801F0AC0D01F068038EF2FB
:080368000100119091EE1FFE4F
:04038C0000F01C025F
:06109A0082A002F092A00A
:1010A00002F0B0A002F0A2A002F090A003F080A095
:0A10B00003F0F0A003F008ED1FFEAE
:0C09440082A051F292A051F2A2A051F248
:1009500080A053F280A052F290A053F290A052F2E5
:10096000A0A053F2A0A052F282A055F282A054F2AD
:1009700092A055F292A054F2A2A055F2A2A054F275
:1009800082A050F292A050F2A2A050F200F0C20455
:0A07060082A059F292A059F2A2A0BD
:1007100059F2B2A059F2C2A059F2D2A059F2E2A005
:1007200059F2F2A059F280A05BF280A05AF290A098
:100730005BF290A05AF2A0A05BF2A0A05AF2B0A087
:100740005BF2B0A05AF2C0A05BF2C0A05AF2D0A0F7
:100750005BF2D0A05AF2E0A05BF2E0A05AF2F0A067
:100760005BF2F0A05AF282A05DF282A05CF292A04D
:100770005DF292A05CF2A2A05DF2A2A05CF2B2A037
:100780005DF2B2A05CF2C2A05DF2C2A05CF2D2A0A7
:100790005DF2D2A05CF2E2A05DF2E2A05CF2F2A017
:1007A0005DF2F2A05CF282A058F292A058F2A2A0F0
:1007B00058F2B2A058F2C2A058F2D2A058F2E2A069
:0A07C00058F2F2A058F200F0C20453
:100AA00082A061F292A061F2A2A061F2B2A061F212
:100AB000C2A061F2D2A061F2E2A061F2F2A061F202
:100AC00080A063F280A062F290A063F290A062F234
:100AD000A0A063F2A0A062F2B0A063F2B0A062F2A4
:100AE000C0A063F2C0A062F2D0A063F2D0A062F214
:100AF000E0A063F2E0A062F2F0A063F2F0A062F284
:100B000082A065F282A064F292A065F292A064F2E3
:100B1000A2A065F2A2A064F2B2A065F2B2A064F253
:100B2000C2A065F2C2A064F2D2A065F2D2A064F2C3
:100B3000E2A065F2E2A064F2F2A065F2F2A064F233
:100B400082A060F292A060F2A2A060F2B2A060F275
:100B5000C2A060F2D2A060F2E2A060F2F2A060F265
:040B600000F0C204DB
:0A04260082A069F292A069F2A2A080
:1004300069F2B2A069F2C2A069F2D2A069F280A00A
:100440006BF280A06AF290A06BF290A06AF2A0A07A
:100450006BF2A0A06AF2B0A06BF2B0A06AF2C0A0EA
:100460006BF2C0A06AF2D0A06BF2D0A06AF282A0B8
:1004700068F292A068F2A2A068F2B2A068F2C2A0EC
:0A04800068F2D2A068F200F0C20496
:0610BA0092A061F290A07B
:1010C00063F290A062F290A065F292A064F292A006
:1010D00072F980A072F99A001001139060F9A000D3
:0C10E0000F01139064F980A073F91FFE4B
:02000200F811F3
:0800880048656C6C6F20576F96
:10009000726C64212020494E505F30303030303057
:1000A00030305F30303030303030300000494E502A
:1000B00020526563656976656400004F555420528F
:1000C000656365697665642020202020202020203B
:1000D00000004D4C3631305131313220436F6E6E5D
:1000E00065637465642100004669726D77617265AD
:1000F0002056657273696F6E3A2030310000506C83
:100100006561736520436C6F736520506F72742056
:10011000616E64206368616E676520546172676513
:1001200074204D435520756E646572204465766970
:100130006365204F7074696F6E73000049324354D9
:100140005820434D442052656365697665642100FB
:1001500000493243525820434D442052656365693B
:100160007665642100004932432D522058205820E2
:10017000582058205820582058205800005CFA0178
:0A01940080250000000200000000BA
:0200000038EED8
:02000400FA11EF
:0811F80001CEFFCE00E000E291
:1012000000E400E60008E0098AF0579088E8F079E9
:10121000FCC10078FAC15A0CA50D119C0EF081A0FA
:101220000EF0FBC9119D0EF0000A0CF08A01AF9080
:101230005290FF7002C8FF7120C9AF905292AF90D8
:101240005294AF905096AF90509780E4F0C901A2AD
:101250000BC801A409C86F90029882E07F90239880
:1012600082E2FEE4F8C8E3CE6F90009881E07F90C0
:10127000219881E2FFE4F8C8DACE01F00A0000000C
:08128000119000F000F0040AD7
:02000A001FFED7
:06018A007800EAEE12010C
:0201900000006D
:02019200FFFF6D
:107FE000FFFFFFFFFFFFFFFFFFFFFFFFFFFFFFFFA1
:107FF000FFFFFFFFFFFFFFFFFFFFFFFFFFFFFFFF91
:0A059600CEF85EFE1AAE5EFC5EF8C1
:1005A0005EF4008800700FC9017002C800F0BC063C
:1005B000027002C800F0C4067FE01EF41EF81EFCA4
:1005C000EAA11EFE8EF20000800100E244BC6EF043
:1005D000C29002B26EF001F0DA0904E12EF0007070
:1005E00000510052005302C87EE0E7CEFFE005F460
:1005F00004D0037002C37DE0E0CE05D0027002C3D8
:100600007CE0DBCE06D0017002C37BE0D6CE07D003
:10061000017002C37AE0D1CE08D0017002C379E044
:10062000CCCE00E01390F2EF1390F4EF1390F6EFBE
:100630001390F8EF1190FAEF82A091F201F0DC062E
:10064000109092F20089F920008980801A909081A0
:10065000038110801030119092F2C2A092F210909B
:1006600093F200898020008944BC05D02A9004D1EF
:10067000038106D04A90138007D15A91038108D094
:100680006A90138090810381119193F2119494F2F6
:10069000109095F20089F020008950800F20908101
:1006A0000381119195F282A096F292A096F2A2A0F7
:1006B00096F2B2A096F200E000F0BA0500E001E286
:1006C00000F0CC0525F000E27B937B927B917A9041
:0C06D0003B933B923B913A9000F0CC052C
:080508005EFE1AAE5EF805F874
:1005100082A091F282A092F21390F2EF1392F4EF84
:1005200000E01390F6EF42B01390F8EF0000119046
:10053000FAEF007200530FC38090119090F2129066
:10054000F2EF81E01390F2EF1290F6EF81E013905A
:0E055000F6EF80A091F21EF8EAA11EFE1FFE3B
:04021C00CEF85EFCBE
:10022000109092F20120007034C81290F4EF1292F4
:10023000F6EF27F019C9109096F20820007012C846
:10024000129CF2EFC090119090F2C5F081E01390F3
:10025000F2EF25F081E01390F6EF80A091F200E03C
:100260001EFC8EF27FE0FCCE109091F20120007017
:100270000EC81290F8EF09C905FC00E01390F8EFE2
:100280001092FAEF1290F4EFC3F001E0E9CE7EE0B5
:10029000E7CE1290F4EF1292F6EF27F02CC91090EF
:1002A00096F2072000821090FAEF23801190FAEF67
:1002B00082A096F292A096F2A2A096F2129CF2EF81
:1002C000109090F2C1901290F2EF81E01390F2EF53
:1002D0001290F6EF81E01390F6EF01A209C8129098
:1002E000F4EF1292F6EF27F006C900E000F060028A
:1002F000010001F090031290F8EF09C905FC00E03D
:100300001390F8EF1092FAEF1290F4EFC3F001E0BF
:0403100000F0600297
:0C0A840082A091F200E01390F2EF1390BA
:100A9000F4EF1390F6EF1390F8EF1190FAEF1FFEBA
:0E0390000082109038EE2380119038EE1FFE90
:02019E0092A02D
:1001A00059F290A05AF290A05BF292A05CF290A05B
:1001B0005DF280A059F280A05AF282A05BF282A088
:0801C0005CF282A05DF21FFE5B
:0406DC0092A059F29D
:1006E00092A05AF292A05BF292A05CF292A05DF20C
:1006F00082A059F282A05AF282A05BF282A05CF240
:0607000082A05DF21FFE65
:0A0180000000000000000000000075
:0609DA00CEF97EF06EF87C
:1009E0005EFC1AACCBF012005498349001F0AE11BA
:0A09F00035901EFC2EF83EF08EF349
:0211AE00200D12
:1011B00000E400E61B971B961B951B941B931B9248
:1011C0001B911A9087F4A586B58705C188849985F7
:0C11D000A986B98700A0FF1DEDC81FFE16
:0C0D8200CEF86EF801F0640B2EF88EF233
:0C0B6400007302C829F01BCE6EF405F8E7
:100B700025FA1D981C991D9A1C9B007BFAC8A9F8A0
:100B80008084208844F8308644F6618907F803C3DE
:100B900028883989FF148880998105F240800001F6
:040BA0002EF41FFE12
:00000001FF
